{
    "contractName": "Create",
    "abi": [
        {
            "inputs": [],
            "stateMutability": "nonpayable",
            "type": "constructor"
        },
        {
            "anonymous": false,
            "inputs": [
                {
                    "indexed": true,
                    "internalType": "uint256",
                    "name": "candidateId",
                    "type": "uint256"
                },
                {
                    "indexed": false,
                    "internalType": "string",
                    "name": "age",
                    "type": "string"
                },
                {
                    "indexed": false,
                    "internalType": "string",
                    "name": "name",
                    "type": "string"
                },
                {
                    "indexed": false,
                    "internalType": "string",
                    "name": "image",
                    "type": "string"
                },
                {
                    "indexed": false,
                    "internalType": "uint256",
                    "name": "voteCount",
                    "type": "uint256"
                },
                {
                    "indexed": false,
                    "internalType": "address",
                    "name": "_address",
                    "type": "address"
                },
                {
                    "indexed": false,
                    "internalType": "string",
                    "name": "ipfs",
                    "type": "string"
                }
            ],
            "name": "CandidateCreate",
            "type": "event"
        },
        {
            "anonymous": false,
            "inputs": [
                {
                    "indexed": true,
                    "internalType": "uint256",
                    "name": "voter_voterId",
                    "type": "uint256"
                },
                {
                    "indexed": false,
                    "internalType": "string",
                    "name": "voter_name",
                    "type": "string"
                },
                {
                    "indexed": false,
                    "internalType": "string",
                    "name": "voter_image",
                    "type": "string"
                },
                {
                    "indexed": false,
                    "internalType": "address",
                    "name": "voter_address",
                    "type": "address"
                },
                {
                    "indexed": false,
                    "internalType": "uint256",
                    "name": "voter_allowed",
                    "type": "uint256"
                },
                {
                    "indexed": false,
                    "internalType": "bool",
                    "name": "voter_voted",
                    "type": "bool"
                },
                {
                    "indexed": false,
                    "internalType": "uint256",
                    "name": "voter_vote",
                    "type": "uint256"
                },
                {
                    "indexed": false,
                    "internalType": "string",
                    "name": "voter_ipfs",
                    "type": "string"
                }
            ],
            "name": "VoterCreated",
            "type": "event"
        },
        {
            "inputs": [],
            "name": "_candidateId",
            "outputs": [
                {
                    "internalType": "uint256",
                    "name": "_value",
                    "type": "uint256"
                }
            ],
            "stateMutability": "view",
            "type": "function"
        },
        {
            "inputs": [],
            "name": "_voterId",
            "outputs": [
                {
                    "internalType": "uint256",
                    "name": "_value",
                    "type": "uint256"
                }
            ],
            "stateMutability": "view",
            "type": "function"
        },
        {
            "inputs": [
                {
                    "internalType": "uint256",
                    "name": "",
                    "type": "uint256"
                }
            ],
            "name": "candidateAddress",
            "outputs": [
                {
                    "internalType": "address",
                    "name": "",
                    "type": "address"
                }
            ],
            "stateMutability": "view",
            "type": "function"
        },
        {
            "inputs": [
                {
                    "internalType": "address",
                    "name": "",
                    "type": "address"
                }
            ],
            "name": "candidates",
            "outputs": [
                {
                    "internalType": "uint256",
                    "name": "candidateId",
                    "type": "uint256"
                },
                {
                    "internalType": "string",
                    "name": "age",
                    "type": "string"
                },
                {
                    "internalType": "string",
                    "name": "name",
                    "type": "string"
                },
                {
                    "internalType": "string",
                    "name": "image",
                    "type": "string"
                },
                {
                    "internalType": "uint256",
                    "name": "voteCount",
                    "type": "uint256"
                },
                {
                    "internalType": "address",
                    "name": "_address",
                    "type": "address"
                },
                {
                    "internalType": "string",
                    "name": "ipfs",
                    "type": "string"
                }
            ],
            "stateMutability": "view",
            "type": "function"
        },
        {
            "inputs": [],
            "name": "getCandidate",
            "outputs": [
                {
                    "internalType": "address[]",
                    "name": "",
                    "type": "address[]"
                }
            ],
            "stateMutability": "view",
            "type": "function"
        },
        {
            "inputs": [
                {
                    "internalType": "address",
                    "name": "_address",
                    "type": "address"
                }
            ],
            "name": "getCandidateData",
            "outputs": [
                {
                    "internalType": "string",
                    "name": "",
                    "type": "string"
                },
                {
                    "internalType": "string",
                    "name": "",
                    "type": "string"
                },
                {
                    "internalType": "uint256",
                    "name": "",
                    "type": "uint256"
                },
                {
                    "internalType": "string",
                    "name": "",
                    "type": "string"
                },
                {
                    "internalType": "uint256",
                    "name": "",
                    "type": "uint256"
                },
                {
                    "internalType": "string",
                    "name": "",
                    "type": "string"
                },
                {
                    "internalType": "address",
                    "name": "",
                    "type": "address"
                }
            ],
            "stateMutability": "view",
            "type": "function"
        },
        {
            "inputs": [],
            "name": "getCandidateLength",
            "outputs": [
                {
                    "internalType": "uint256",
                    "name": "",
                    "type": "uint256"
                }
            ],
            "stateMutability": "view",
            "type": "function"
        },
        {
            "inputs": [],
            "name": "getVotedVotersList",
            "outputs": [
                {
                    "internalType": "address[]",
                    "name": "",
                    "type": "address[]"
                }
            ],
            "stateMutability": "view",
            "type": "function"
        },
        {
            "inputs": [
                {
                    "internalType": "address",
                    "name": "_address",
                    "type": "address"
                }
            ],
            "name": "getVoterData",
            "outputs": [
                {
                    "internalType": "uint256",
                    "name": "",
                    "type": "uint256"
                },
                {
                    "internalType": "string",
                    "name": "",
                    "type": "string"
                },
                {
                    "internalType": "string",
                    "name": "",
                    "type": "string"
                },
                {
                    "internalType": "address",
                    "name": "",
                    "type": "address"
                },
                {
                    "internalType": "string",
                    "name": "",
                    "type": "string"
                },
                {
                    "internalType": "uint256",
                    "name": "",
                    "type": "uint256"
                },
                {
                    "internalType": "bool",
                    "name": "",
                    "type": "bool"
                }
            ],
            "stateMutability": "view",
            "type": "function"
        },
        {
            "inputs": [],
            "name": "getVoterLength",
            "outputs": [
                {
                    "internalType": "uint256",
                    "name": "",
                    "type": "uint256"
                }
            ],
            "stateMutability": "view",
            "type": "function"
        },
        {
            "inputs": [],
            "name": "getVoterList",
            "outputs": [
                {
                    "internalType": "address[]",
                    "name": "",
                    "type": "address[]"
                }
            ],
            "stateMutability": "view",
            "type": "function"
        },
        {
            "inputs": [
                {
                    "internalType": "address",
                    "name": "_address",
                    "type": "address"
                },
                {
                    "internalType": "string",
                    "name": "_age",
                    "type": "string"
                },
                {
                    "internalType": "string",
                    "name": "_name",
                    "type": "string"
                },
                {
                    "internalType": "string",
                    "name": "_image",
                    "type": "string"
                },
                {
                    "internalType": "string",
                    "name": "_ipfs",
                    "type": "string"
                }
            ],
            "name": "setCandidate",
            "outputs": [],
            "stateMutability": "nonpayable",
            "type": "function"
        },
        {
            "inputs": [
                {
                    "internalType": "address",
                    "name": "_candidateAddress",
                    "type": "address"
                },
                {
                    "internalType": "uint256",
                    "name": "_candidateVoteId",
                    "type": "uint256"
                }
            ],
            "name": "vote",
            "outputs": [],
            "stateMutability": "nonpayable",
            "type": "function"
        },
        {
            "inputs": [
                {
                    "internalType": "uint256",
                    "name": "",
                    "type": "uint256"
                }
            ],
            "name": "votedVoters",
            "outputs": [
                {
                    "internalType": "address",
                    "name": "",
                    "type": "address"
                }
            ],
            "stateMutability": "view",
            "type": "function"
        },
        {
            "inputs": [
                {
                    "internalType": "address",
                    "name": "_address",
                    "type": "address"
                },
                {
                    "internalType": "string",
                    "name": "_name",
                    "type": "string"
                },
                {
                    "internalType": "string",
                    "name": "_image",
                    "type": "string"
                },
                {
                    "internalType": "string",
                    "name": "_ipfs",
                    "type": "string"
                }
            ],
            "name": "voterRight",
            "outputs": [],
            "stateMutability": "nonpayable",
            "type": "function"
        },
        {
            "inputs": [
                {
                    "internalType": "address",
                    "name": "",
                    "type": "address"
                }
            ],
            "name": "voters",
            "outputs": [
                {
                    "internalType": "uint256",
                    "name": "voter_voterId",
                    "type": "uint256"
                },
                {
                    "internalType": "string",
                    "name": "voter_name",
                    "type": "string"
                },
                {
                    "internalType": "string",
                    "name": "voter_image",
                    "type": "string"
                },
                {
                    "internalType": "address",
                    "name": "voter_address",
                    "type": "address"
                },
                {
                    "internalType": "uint256",
                    "name": "voter_allowed",
                    "type": "uint256"
                },
                {
                    "internalType": "bool",
                    "name": "voter_voted",
                    "type": "bool"
                },
                {
                    "internalType": "uint256",
                    "name": "voter_vote",
                    "type": "uint256"
                },
                {
                    "internalType": "string",
                    "name": "voter_ipfs",
                    "type": "string"
                }
            ],
            "stateMutability": "view",
            "type": "function"
        },
        {
            "inputs": [
                {
                    "internalType": "uint256",
                    "name": "",
                    "type": "uint256"
                }
            ],
            "name": "votersAddress",
            "outputs": [
                {
                    "internalType": "address",
                    "name": "",
                    "type": "address"
                }
            ],
            "stateMutability": "view",
            "type": "function"
        },
        {
            "inputs": [],
            "name": "votingOrganizer",
            "outputs": [
                {
                    "internalType": "address",
                    "name": "",
                    "type": "address"
                }
            ],
            "stateMutability": "view",
            "type": "function"
        }
    ],
    "bytecode": "608060405234801561001057600080fd5b50600280546001600160a01b03191633179055611998806100326000396000f3fe608060405234801561001057600080fd5b50600436106101165760003560e01c80637831ffb3116100a2578063a738896711610071578063a738896714610274578063b28d92ae1461027e578063b9be315214610286578063c91ec71214610290578063f7522a83146102a357600080fd5b80637831ffb3146101ee5780638ab66a90146102015780638fb4cd8014610227578063a3ec138d1461024d57600080fd5b80633a88251a116100e95780633a88251a1461018257806343242daa146101ad5780635cc48aa7146101c05780635f74bbde146101d357806370218b85146101e657600080fd5b80630361419e1461011b57806305ad45a41461013057806313182dce146101475780632a466ac71461015c575b600080fd5b61012e61012936600461128b565b6102ab565b005b6006545b6040519081526020015b60405180910390f35b61014f610471565b60405161013e9190611324565b61016f61016a366004611371565b6104d3565b60405161013e97969594939291906113d9565b61019561019036600461144f565b610766565b6040516001600160a01b03909116815260200161013e565b6101956101bb36600461144f565b610790565b600254610195906001600160a01b031681565b61012e6101e1366004611468565b6107a0565b61014f6108e1565b6101956101fc36600461144f565b610941565b61021461020f366004611371565b610951565b60405161013e9796959493929190611492565b61023a610235366004611371565b610bba565b60405161013e9796959493929190611509565b61026061025b366004611371565b610dd0565b60405161013e989796959493929190611573565b6001546101349081565b61014f610fbc565b6000546101349081565b61012e61029e3660046115e9565b61101c565b600354610134565b6002546001600160a01b031633146103265760405162461bcd60e51b815260206004820152603360248201527f596f752068617665206e6f20726967687420746f2070726f7669646520617574604482015272686f72697a6174696f6e20666f7220766f746560681b60648201526084015b60405180910390fd5b610334600080546001019055565b600080546001600160a01b03861682526007602052604090912060048101541561035d57600080fd5b60016004820181905581016103728682611730565b50600281016103818582611730565b506003810180546001600160a01b0319166001600160a01b0388161790558181556103e8600682015560058101805460ff19169055600781016103c48482611730565b506006805460018101825560008290527ff652222313e28459528d920b65115c16c04f3efc82aaedc97be59f3f377c0d3f0180546001600160a01b0319166001600160a01b0389161790558154600483015460058401549284015460405192937ff5f39971dd62d9929e3a9feaa6bb77fe7c7da0001babff8a65a7e51ad0201c1993610461938b938b938e9360ff909116919060078b019061186d565b60405180910390a2505050505050565b606060058054806020026020016040519081016040528092919081815260200182805480156104c957602002820191906000526020600020905b81546001600160a01b031681526001909101906020018083116104ab575b5050505050905090565b6001600160a01b03808216600090815260046020819052604082208054918101546005820154600183018054606097889796889688968896889695600284019560038501946006019216908790610529906116a7565b80601f0160208091040260200160405190810160405280929190818152602001828054610555906116a7565b80156105a25780601f10610577576101008083540402835291602001916105a2565b820191906000526020600020905b81548152906001019060200180831161058557829003601f168201915b505050505096508580546105b5906116a7565b80601f01602080910402602001604051908101604052809291908181526020018280546105e1906116a7565b801561062e5780601f106106035761010080835404028352916020019161062e565b820191906000526020600020905b81548152906001019060200180831161061157829003601f168201915b50505050509550838054610641906116a7565b80601f016020809104026020016040519081016040528092919081815260200182805461066d906116a7565b80156106ba5780601f1061068f576101008083540402835291602001916106ba565b820191906000526020600020905b81548152906001019060200180831161069d57829003601f168201915b505050505093508180546106cd906116a7565b80601f01602080910402602001604051908101604052809291908181526020018280546106f9906116a7565b80156107465780601f1061071b57610100808354040283529160200191610746565b820191906000526020600020905b81548152906001019060200180831161072957829003601f168201915b505050505091509650965096509650965096509650919395979092949650565b6003818154811061077657600080fd5b6000918252602090912001546001600160a01b0316905081565b6006818154811061077657600080fd5b336000908152600760205260409020600581015460ff16156107fd5760405162461bcd60e51b8152602060048201526016602482015275165bdd481a185d9948185b1c9958591e481d9bdd195960521b604482015260640161031d565b80600401546000036108515760405162461bcd60e51b815260206004820152601960248201527f596f752068617665206e6f20726967687420746f20766f746500000000000000604482015260640161031d565b6005808201805460ff191660019081179091556006830184905581549081019091557f036b6384b5eca791c62761152d0c79bb0604c104a5fb6f4eb0703f3154bb3db00180546001600160a01b031916331790556004808201546001600160a01b03851660009081526020839052604081209092018054919290916108d79084906118cb565b9091555050505050565b606060038054806020026020016040519081016040528092919081815260200182805480156104c9576020028201919060005260206000209081546001600160a01b031681526001909101906020018083116104ab575050505050905090565b6005818154811061077657600080fd5b60046020526000908152604090208054600182018054919291610973906116a7565b80601f016020809104026020016040519081016040528092919081815260200182805461099f906116a7565b80156109ec5780601f106109c1576101008083540402835291602001916109ec565b820191906000526020600020905b8154815290600101906020018083116109cf57829003601f168201915b505050505090806002018054610a01906116a7565b80601f0160208091040260200160405190810160405280929190818152602001828054610a2d906116a7565b8015610a7a5780601f10610a4f57610100808354040283529160200191610a7a565b820191906000526020600020905b815481529060010190602001808311610a5d57829003601f168201915b505050505090806003018054610a8f906116a7565b80601f0160208091040260200160405190810160405280929190818152602001828054610abb906116a7565b8015610b085780601f10610add57610100808354040283529160200191610b08565b820191906000526020600020905b815481529060010190602001808311610aeb57829003601f168201915b5050505060048301546005840154600685018054949592946001600160a01b03909216935090610b37906116a7565b80601f0160208091040260200160405190810160405280929190818152602001828054610b63906116a7565b8015610bb05780601f10610b8557610100808354040283529160200191610bb0565b820191906000526020600020905b815481529060010190602001808311610b9357829003601f168201915b5050505050905087565b6001600160a01b03808216600090815260076020819052604082208054600382015460048301546005840154600185018054979860609889988b988a988a9889989197600284019691909116949290930192909160ff909116908690610c1f906116a7565b80601f0160208091040260200160405190810160405280929190818152602001828054610c4b906116a7565b8015610c985780601f10610c6d57610100808354040283529160200191610c98565b820191906000526020600020905b815481529060010190602001808311610c7b57829003601f168201915b50505050509550848054610cab906116a7565b80601f0160208091040260200160405190810160405280929190818152602001828054610cd7906116a7565b8015610d245780601f10610cf957610100808354040283529160200191610d24565b820191906000526020600020905b815481529060010190602001808311610d0757829003601f168201915b50505050509450828054610d37906116a7565b80601f0160208091040260200160405190810160405280929190818152602001828054610d63906116a7565b8015610db05780601f10610d8557610100808354040283529160200191610db0565b820191906000526020600020905b815481529060010190602001808311610d9357829003601f168201915b505050505092509650965096509650965096509650919395979092949650565b60076020526000908152604090208054600182018054919291610df2906116a7565b80601f0160208091040260200160405190810160405280929190818152602001828054610e1e906116a7565b8015610e6b5780601f10610e4057610100808354040283529160200191610e6b565b820191906000526020600020905b815481529060010190602001808311610e4e57829003601f168201915b505050505090806002018054610e80906116a7565b80601f0160208091040260200160405190810160405280929190818152602001828054610eac906116a7565b8015610ef95780601f10610ece57610100808354040283529160200191610ef9565b820191906000526020600020905b815481529060010190602001808311610edc57829003601f168201915b505050600384015460048501546005860154600687015460078801805497986001600160a01b039095169793965060ff90921694509291610f39906116a7565b80601f0160208091040260200160405190810160405280929190818152602001828054610f65906116a7565b8015610fb25780601f10610f8757610100808354040283529160200191610fb2565b820191906000526020600020905b815481529060010190602001808311610f9557829003601f168201915b5050505050905088565b606060068054806020026020016040519081016040528092919081815260200182805480156104c9576020028201919060005260206000209081546001600160a01b031681526001909101906020018083116104ab575050505050905090565b6002546001600160a01b0316331461108a5760405162461bcd60e51b815260206004820152602b60248201527f596f752068617665206e6f20617a7574686f72697a6174696f6e20746f20736560448201526a742043616e64696461746560a81b606482015260840161031d565b611098600180546001019055565b60006110a360015490565b6001600160a01b0387166000908152600460205260409020909150600181016110cc8782611730565b50600281016110db8682611730565b50818155600381016110ed8582611730565b50600060048201556005810180546001600160a01b0319166001600160a01b038916179055600681016111208482611730565b50600380546001810182556000919091527fc2575a0e9e593c00f959f8c92f12db2869c3395a3b0502d05e2516446f71f85b0180546001600160a01b0319166001600160a01b038981169190911790915581546004830154600584015460405192937fd297f12b256bb8485a6013fb5e302017018123e99a0ebb20756c09e1707b4b90936111bb938c938c938c9391169060068a01906118f2565b60405180910390a250505050505050565b80356001600160a01b03811681146111e357600080fd5b919050565b634e487b7160e01b600052604160045260246000fd5b600082601f83011261120f57600080fd5b813567ffffffffffffffff8082111561122a5761122a6111e8565b604051601f8301601f19908116603f01168101908282118183101715611252576112526111e8565b8160405283815286602085880101111561126b57600080fd5b836020870160208301376000602085830101528094505050505092915050565b600080600080608085870312156112a157600080fd5b6112aa856111cc565b9350602085013567ffffffffffffffff808211156112c757600080fd5b6112d3888389016111fe565b945060408701359150808211156112e957600080fd5b6112f5888389016111fe565b9350606087013591508082111561130b57600080fd5b50611318878288016111fe565b91505092959194509250565b6020808252825182820181905260009190848201906040850190845b818110156113655783516001600160a01b031683529284019291840191600101611340565b50909695505050505050565b60006020828403121561138357600080fd5b61138c826111cc565b9392505050565b6000815180845260005b818110156113b95760208185018101518683018201520161139d565b506000602082860101526020601f19601f83011685010191505092915050565b60e0815260006113ec60e083018a611393565b82810360208401526113fe818a611393565b905087604084015282810360608401526114188188611393565b905085608084015282810360a08401526114328186611393565b91505060018060a01b03831660c083015298975050505050505050565b60006020828403121561146157600080fd5b5035919050565b6000806040838503121561147b57600080fd5b611484836111cc565b946020939093013593505050565b87815260e0602082015260006114ab60e0830189611393565b82810360408401526114bd8189611393565b905082810360608401526114d18188611393565b608084018790526001600160a01b03861660a085015283810360c085015290506114fb8185611393565b9a9950505050505050505050565b87815260e06020820152600061152260e0830189611393565b82810360408401526115348189611393565b6001600160a01b0388166060850152838103608085015290506115578187611393565b60a0840195909552505090151560c09091015295945050505050565b60006101008a835280602084015261158d8184018b611393565b905082810360408401526115a1818a611393565b6001600160a01b03891660608501526080840188905286151560a085015260c0840186905283810360e085015290506115da8185611393565b9b9a5050505050505050505050565b600080600080600060a0868803121561160157600080fd5b61160a866111cc565b9450602086013567ffffffffffffffff8082111561162757600080fd5b61163389838a016111fe565b9550604088013591508082111561164957600080fd5b61165589838a016111fe565b9450606088013591508082111561166b57600080fd5b61167789838a016111fe565b9350608088013591508082111561168d57600080fd5b5061169a888289016111fe565b9150509295509295909350565b600181811c908216806116bb57607f821691505b6020821081036116db57634e487b7160e01b600052602260045260246000fd5b50919050565b601f82111561172b57600081815260208120601f850160051c810160208610156117085750805b601f850160051c820191505b8181101561172757828155600101611714565b5050505b505050565b815167ffffffffffffffff81111561174a5761174a6111e8565b61175e8161175884546116a7565b846116e1565b602080601f831160018114611793576000841561177b5750858301515b600019600386901b1c1916600185901b178555611727565b600085815260208120601f198616915b828110156117c2578886015182559484019460019091019084016117a3565b50858210156117e05787850151600019600388901b60f8161c191681555b5050505050600190811b01905550565b600081546117fd816116a7565b80855260206001838116801561181a576001811461183457611862565b60ff1985168884015283151560051b880183019550611862565b866000528260002060005b8581101561185a5781548a820186015290830190840161183f565b890184019650505b505050505092915050565b60e08152600061188060e083018a611393565b8281036020840152611892818a611393565b6001600160a01b038916604085015260608401889052861515608085015260a0840186905283810360c085015290506114fb81856117f0565b808201808211156118ec57634e487b7160e01b600052601160045260246000fd5b92915050565b60c08152600061190560c0830189611393565b82810360208401526119178189611393565b9050828103604084015261192b8188611393565b606084018790526001600160a01b038616608085015283810360a0850152905061195581856117f0565b999850505050505050505056fea264697066735822122015f515880317a74dfc4563a003313c8b2ab8fac3f6f3337d45acd94aafff8e5c64736f6c63430008110033",
    "sourcePath": "c:/Users/ASUS/Desktop/votesmart/contracts/VotingContract.sol",
    "compiler": {
        "name": "solc",
        "version": "0.8.17+commit.8df45f5f"
    },
    "functionHashes": {
        "_candidateId()": "a7388967",
        "_voterId()": "b9be3152",
        "candidateAddress(uint256)": "3a88251a",
        "candidates(address)": "8ab66a90",
        "getCandidate()": "70218b85",
        "getCandidateData(address)": "2a466ac7",
        "getCandidateLength()": "f7522a83",
        "getVotedVotersList()": "13182dce",
        "getVoterData(address)": "8fb4cd80",
        "getVoterLength()": "05ad45a4",
        "getVoterList()": "b28d92ae",
        "setCandidate(address,string,string,string,string)": "c91ec712",
        "vote(address,uint256)": "5f74bbde",
        "votedVoters(uint256)": "7831ffb3",
        "voterRight(address,string,string,string)": "0361419e",
        "voters(address)": "a3ec138d",
        "votersAddress(uint256)": "43242daa",
        "votingOrganizer()": "5cc48aa7"
    },
    "gasEstimates": {
        "creation": {
            "codeDepositCost": "1310400",
            "executionCost": "25598",
            "totalCost": "1335998"
        },
        "external": {
            "_candidateId()": "2309",
            "_voterId()": "2353",
            "candidateAddress(uint256)": "4637",
            "candidates(address)": "infinite",
            "getCandidate()": "infinite",
            "getCandidateData(address)": "infinite",
            "getCandidateLength()": "2391",
            "getVotedVotersList()": "infinite",
            "getVoterData(address)": "infinite",
            "getVoterLength()": "2316",
            "getVoterList()": "infinite",
            "setCandidate(address,string,string,string,string)": "infinite",
            "vote(address,uint256)": "126080",
            "votedVoters(uint256)": "4637",
            "voterRight(address,string,string,string)": "infinite",
            "voters(address)": "infinite",
            "votersAddress(uint256)": "4659",
            "votingOrganizer()": "2404"
        }
    }
}